{
    "contractName": "EventTickets",
    "abi": [
        {
            "inputs": [
                {
                    "internalType": "string",
                    "name": "_name",
                    "type": "string"
                },
                {
                    "internalType": "string",
                    "name": "_dateTime",
                    "type": "string"
                },
                {
                    "internalType": "uint256",
                    "name": "_price",
                    "type": "uint256"
                }
            ],
            "name": "createEvent",
            "outputs": [],
            "stateMutability": "nonpayable",
            "type": "function"
        },
        {
            "inputs": [],
            "name": "getEvents",
            "outputs": [
                {
                    "components": [
                        {
                            "internalType": "address",
                            "name": "owner",
                            "type": "address"
                        },
                        {
                            "internalType": "uint256",
                            "name": "price",
                            "type": "uint256"
                        },
                        {
                            "internalType": "uint256",
                            "name": "income",
                            "type": "uint256"
                        },
                        {
                            "internalType": "string",
                            "name": "name",
                            "type": "string"
                        },
                        {
                            "internalType": "string",
                            "name": "dateTime",
                            "type": "string"
                        }
                    ],
                    "internalType": "struct EventTickets.Event[]",
                    "name": "",
                    "type": "tuple[]"
                }
            ],
            "stateMutability": "view",
            "type": "function"
        },
        {
            "inputs": [
                {
                    "internalType": "bytes32",
                    "name": "_eventID",
                    "type": "bytes32"
                }
            ],
            "name": "withdraw",
            "outputs": [],
            "stateMutability": "payable",
            "type": "function"
        }
    ],
    "bytecode": "6080604052600060025534801561001557600080fd5b50610b82806100256000396000f3fe6080604052600436106100345760003560e01c8063404aa8f9146100395780635555fe17146100645780638e19899e14610086575b600080fd5b34801561004557600080fd5b5061004e610099565b60405161005b9190610800565b60405180910390f35b34801561007057600080fd5b5061008461007f366004610956565b610247565b005b6100846100943660046109c3565b6104b9565b60606003805480602002602001604051908101604052809291908181526020016000905b8282101561023e5760008481526020908190206040805160a0810182526005860290920180546001600160a01b0316835260018101549383019390935260028301549082015260038201805491929160608401919061011b906109dc565b80601f0160208091040260200160405190810160405280929190818152602001828054610147906109dc565b80156101945780601f1061016957610100808354040283529160200191610194565b820191906000526020600020905b81548152906001019060200180831161017757829003601f168201915b505050505081526020016004820180546101ad906109dc565b80601f01602080910402602001604051908101604052809291908181526020018280546101d9906109dc565b80156102265780601f106101fb57610100808354040283529160200191610226565b820191906000526020600020905b81548152906001019060200180831161020957829003601f168201915b505050505081525050815260200190600101906100bd565b50505050905090565b600083511161028c5760405162461bcd60e51b815260206004820152600c60248201526b13985b59481b9bdd081cd95d60a21b60448201526064015b60405180910390fd5b60008251116102d05760405162461bcd60e51b815260206004820152601060248201526f11185d195d1a5b59481b9bdd081cd95d60821b6044820152606401610283565b60025460408051336020808301919091528183018490528251808303840181526060909201909252805191012090610309906001610a16565b60029081556040805160a0810182523380825260208083018781526000848601818152606086018c8152608087018c9052948252818452868220805460018082018355918452858420018a905589835293849052959020845181546001600160a01b0319166001600160a01b03909116178155905191810191909155925193830193909355915182919060038201906103a29082610a8c565b50608082015160048201906103b79082610a8c565b50506003805460018101825560009190915282517fc2575a0e9e593c00f959f8c92f12db2869c3395a3b0502d05e2516446f71f85b600590920291820180546001600160a01b0319166001600160a01b0390921691909117815560208401517fc2575a0e9e593c00f959f8c92f12db2869c3395a3b0502d05e2516446f71f85c83015560408401517fc2575a0e9e593c00f959f8c92f12db2869c3395a3b0502d05e2516446f71f85d830155606084015184935090917fc2575a0e9e593c00f959f8c92f12db2869c3395a3b0502d05e2516446f71f85e019061049a9082610a8c565b50608082015160048201906104af9082610a8c565b5050505050505050565b6000818152600160208181526040808420815160a08101835281546001600160a01b031681529381015492840192909252600282015490830152600381018054606084019190610508906109dc565b80601f0160208091040260200160405190810160405280929190818152602001828054610534906109dc565b80156105815780601f1061055657610100808354040283529160200191610581565b820191906000526020600020905b81548152906001019060200180831161056457829003601f168201915b5050505050815260200160048201805461059a906109dc565b80601f01602080910402602001604051908101604052809291908181526020018280546105c6906109dc565b80156106135780601f106105e857610100808354040283529160200191610613565b820191906000526020600020905b8154815290600101906020018083116105f657829003601f168201915b505050505081525050905080600001516001600160a01b0316336001600160a01b03161461068f5760405162461bcd60e51b815260206004820152602360248201527f596f7520617265206e6f7420746865206f776e6572206f662074686973206576604482015262195b9d60ea1b6064820152608401610283565b60008160400151116107095760405162461bcd60e51b815260206004820152603960248201527f54686973206576656e7420686173206e6f20696e636f6d65206f72206974206860448201527f617320616c7265616479206265656e2077697468647261776e000000000000006064820152608401610283565b604080820151905160009133918381818185875af1925050503d806000811461074e576040519150601f19603f3d011682016040523d82523d6000602084013e610753565b606091505b50509050806107a45760405162461bcd60e51b815260206004820152601b60248201527f5769746864726177207472616e73616374696f6e206661696c656400000000006044820152606401610283565b5050600090815260016020526040812060020155565b6000815180845260005b818110156107e0576020818501810151868301820152016107c4565b506000602082860101526020601f19601f83011685010191505092915050565b60006020808301818452808551808352604092508286019150828160051b87010184880160005b838110156108a557888303603f19018552815180516001600160a01b031684528781015188850152868101518785015260608082015160a08287018190529190610873838801826107ba565b925050506080808301519250858203818701525061089181836107ba565b968901969450505090860190600101610827565b509098975050505050505050565b634e487b7160e01b600052604160045260246000fd5b600082601f8301126108da57600080fd5b813567ffffffffffffffff808211156108f5576108f56108b3565b604051601f8301601f19908116603f0116810190828211818310171561091d5761091d6108b3565b8160405283815286602085880101111561093657600080fd5b836020870160208301376000602085830101528094505050505092915050565b60008060006060848603121561096b57600080fd5b833567ffffffffffffffff8082111561098357600080fd5b61098f878388016108c9565b945060208601359150808211156109a557600080fd5b506109b2868287016108c9565b925050604084013590509250925092565b6000602082840312156109d557600080fd5b5035919050565b600181811c908216806109f057607f821691505b602082108103610a1057634e487b7160e01b600052602260045260246000fd5b50919050565b80820180821115610a3757634e487b7160e01b600052601160045260246000fd5b92915050565b601f821115610a8757600081815260208120601f850160051c81016020861015610a645750805b601f850160051c820191505b81811015610a8357828155600101610a70565b5050505b505050565b815167ffffffffffffffff811115610aa657610aa66108b3565b610aba81610ab484546109dc565b84610a3d565b602080601f831160018114610aef5760008415610ad75750858301515b600019600386901b1c1916600185901b178555610a83565b600085815260208120601f198616915b82811015610b1e57888601518255948401946001909101908401610aff565b5085821015610b3c5787850151600019600388901b60f8161c191681555b5050505050600190811b0190555056fea2646970667358221220e1362fe88b19a18d8e139408c8f3ff33e4b61ca5b5a37e30278711cb5b90e23064736f6c63430008110033",
    "sourcePath": "/Users/adamabraham/repos/smart-contract-playground/hardhat/contracts/EventTickets.sol",
    "compiler": {
        "name": "solc",
        "version": "0.8.17+commit.8df45f5f"
    },
    "functionHashes": {
        "createEvent(string,string,uint256)": "5555fe17",
        "getEvents()": "404aa8f9",
        "withdraw(bytes32)": "8e19899e"
    },
    "gasEstimates": {
        "creation": {
            "codeDepositCost": "589200",
            "executionCost": "5631",
            "totalCost": "594831"
        },
        "external": {
            "createEvent(string,string,uint256)": "infinite",
            "getEvents()": "infinite",
            "withdraw(bytes32)": "infinite"
        }
    }
}