{
  "_format": "hh-sol-artifact-1",
  "contractName": "EventTickets",
  "sourceName": "contracts/EventTickets.sol",
  "abi": [
    {
      "inputs": [],
      "stateMutability": "nonpayable",
      "type": "constructor"
    },
    {
      "anonymous": false,
      "inputs": [
        {
          "indexed": true,
          "internalType": "address",
          "name": "owner",
          "type": "address"
        },
        {
          "indexed": true,
          "internalType": "address",
          "name": "approved",
          "type": "address"
        },
        {
          "indexed": true,
          "internalType": "uint256",
          "name": "tokenId",
          "type": "uint256"
        }
      ],
      "name": "Approval",
      "type": "event"
    },
    {
      "anonymous": false,
      "inputs": [
        {
          "indexed": true,
          "internalType": "address",
          "name": "owner",
          "type": "address"
        },
        {
          "indexed": true,
          "internalType": "address",
          "name": "operator",
          "type": "address"
        },
        {
          "indexed": false,
          "internalType": "bool",
          "name": "approved",
          "type": "bool"
        }
      ],
      "name": "ApprovalForAll",
      "type": "event"
    },
    {
      "anonymous": false,
      "inputs": [],
      "name": "EventCreated",
      "type": "event"
    },
    {
      "anonymous": false,
      "inputs": [],
      "name": "IncomeWithdrawn",
      "type": "event"
    },
    {
      "anonymous": false,
      "inputs": [],
      "name": "TicketMinted",
      "type": "event"
    },
    {
      "anonymous": false,
      "inputs": [
        {
          "indexed": true,
          "internalType": "address",
          "name": "from",
          "type": "address"
        },
        {
          "indexed": true,
          "internalType": "address",
          "name": "to",
          "type": "address"
        },
        {
          "indexed": true,
          "internalType": "uint256",
          "name": "tokenId",
          "type": "uint256"
        }
      ],
      "name": "Transfer",
      "type": "event"
    },
    {
      "inputs": [
        {
          "internalType": "address",
          "name": "to",
          "type": "address"
        },
        {
          "internalType": "uint256",
          "name": "tokenId",
          "type": "uint256"
        }
      ],
      "name": "approve",
      "outputs": [],
      "stateMutability": "nonpayable",
      "type": "function"
    },
    {
      "inputs": [
        {
          "internalType": "address",
          "name": "owner",
          "type": "address"
        }
      ],
      "name": "balanceOf",
      "outputs": [
        {
          "internalType": "uint256",
          "name": "",
          "type": "uint256"
        }
      ],
      "stateMutability": "view",
      "type": "function"
    },
    {
      "inputs": [
        {
          "internalType": "string",
          "name": "_name",
          "type": "string"
        },
        {
          "internalType": "string",
          "name": "_dateTime",
          "type": "string"
        },
        {
          "internalType": "uint256",
          "name": "_price",
          "type": "uint256"
        }
      ],
      "name": "createEvent",
      "outputs": [],
      "stateMutability": "nonpayable",
      "type": "function"
    },
    {
      "inputs": [
        {
          "internalType": "string",
          "name": "_eventName",
          "type": "string"
        },
        {
          "internalType": "uint256",
          "name": "_tokenId",
          "type": "uint256"
        }
      ],
      "name": "generateTicket",
      "outputs": [
        {
          "internalType": "string",
          "name": "",
          "type": "string"
        }
      ],
      "stateMutability": "pure",
      "type": "function"
    },
    {
      "inputs": [
        {
          "internalType": "uint256",
          "name": "tokenId",
          "type": "uint256"
        }
      ],
      "name": "getApproved",
      "outputs": [
        {
          "internalType": "address",
          "name": "",
          "type": "address"
        }
      ],
      "stateMutability": "view",
      "type": "function"
    },
    {
      "inputs": [],
      "name": "getEvents",
      "outputs": [
        {
          "components": [
            {
              "internalType": "address",
              "name": "owner",
              "type": "address"
            },
            {
              "internalType": "bytes32",
              "name": "id",
              "type": "bytes32"
            },
            {
              "internalType": "uint256",
              "name": "price",
              "type": "uint256"
            },
            {
              "internalType": "uint256",
              "name": "income",
              "type": "uint256"
            },
            {
              "internalType": "string",
              "name": "name",
              "type": "string"
            },
            {
              "internalType": "string",
              "name": "dateTime",
              "type": "string"
            }
          ],
          "internalType": "struct EventTickets.Event[]",
          "name": "",
          "type": "tuple[]"
        }
      ],
      "stateMutability": "view",
      "type": "function"
    },
    {
      "inputs": [
        {
          "internalType": "string",
          "name": "_eventName",
          "type": "string"
        },
        {
          "internalType": "uint256",
          "name": "_tokenId",
          "type": "uint256"
        },
        {
          "internalType": "address",
          "name": "_owner",
          "type": "address"
        }
      ],
      "name": "getTokenURI",
      "outputs": [
        {
          "internalType": "string",
          "name": "",
          "type": "string"
        }
      ],
      "stateMutability": "pure",
      "type": "function"
    },
    {
      "inputs": [
        {
          "internalType": "address",
          "name": "owner",
          "type": "address"
        },
        {
          "internalType": "address",
          "name": "operator",
          "type": "address"
        }
      ],
      "name": "isApprovedForAll",
      "outputs": [
        {
          "internalType": "bool",
          "name": "",
          "type": "bool"
        }
      ],
      "stateMutability": "view",
      "type": "function"
    },
    {
      "inputs": [
        {
          "internalType": "bytes32",
          "name": "_eventID",
          "type": "bytes32"
        },
        {
          "internalType": "uint256",
          "name": "_amount",
          "type": "uint256"
        }
      ],
      "name": "mint",
      "outputs": [],
      "stateMutability": "payable",
      "type": "function"
    },
    {
      "inputs": [],
      "name": "name",
      "outputs": [
        {
          "internalType": "string",
          "name": "",
          "type": "string"
        }
      ],
      "stateMutability": "view",
      "type": "function"
    },
    {
      "inputs": [
        {
          "internalType": "uint256",
          "name": "tokenId",
          "type": "uint256"
        }
      ],
      "name": "ownerOf",
      "outputs": [
        {
          "internalType": "address",
          "name": "",
          "type": "address"
        }
      ],
      "stateMutability": "view",
      "type": "function"
    },
    {
      "inputs": [
        {
          "internalType": "address",
          "name": "from",
          "type": "address"
        },
        {
          "internalType": "address",
          "name": "to",
          "type": "address"
        },
        {
          "internalType": "uint256",
          "name": "tokenId",
          "type": "uint256"
        }
      ],
      "name": "safeTransferFrom",
      "outputs": [],
      "stateMutability": "nonpayable",
      "type": "function"
    },
    {
      "inputs": [
        {
          "internalType": "address",
          "name": "from",
          "type": "address"
        },
        {
          "internalType": "address",
          "name": "to",
          "type": "address"
        },
        {
          "internalType": "uint256",
          "name": "tokenId",
          "type": "uint256"
        },
        {
          "internalType": "bytes",
          "name": "data",
          "type": "bytes"
        }
      ],
      "name": "safeTransferFrom",
      "outputs": [],
      "stateMutability": "nonpayable",
      "type": "function"
    },
    {
      "inputs": [
        {
          "internalType": "address",
          "name": "operator",
          "type": "address"
        },
        {
          "internalType": "bool",
          "name": "approved",
          "type": "bool"
        }
      ],
      "name": "setApprovalForAll",
      "outputs": [],
      "stateMutability": "nonpayable",
      "type": "function"
    },
    {
      "inputs": [
        {
          "internalType": "bytes4",
          "name": "interfaceId",
          "type": "bytes4"
        }
      ],
      "name": "supportsInterface",
      "outputs": [
        {
          "internalType": "bool",
          "name": "",
          "type": "bool"
        }
      ],
      "stateMutability": "view",
      "type": "function"
    },
    {
      "inputs": [],
      "name": "symbol",
      "outputs": [
        {
          "internalType": "string",
          "name": "",
          "type": "string"
        }
      ],
      "stateMutability": "view",
      "type": "function"
    },
    {
      "inputs": [
        {
          "internalType": "uint256",
          "name": "tokenId",
          "type": "uint256"
        }
      ],
      "name": "tokenURI",
      "outputs": [
        {
          "internalType": "string",
          "name": "",
          "type": "string"
        }
      ],
      "stateMutability": "view",
      "type": "function"
    },
    {
      "inputs": [
        {
          "internalType": "address",
          "name": "from",
          "type": "address"
        },
        {
          "internalType": "address",
          "name": "to",
          "type": "address"
        },
        {
          "internalType": "uint256",
          "name": "tokenId",
          "type": "uint256"
        }
      ],
      "name": "transferFrom",
      "outputs": [],
      "stateMutability": "nonpayable",
      "type": "function"
    },
    {
      "inputs": [
        {
          "internalType": "bytes32",
          "name": "_eventID",
          "type": "bytes32"
        }
      ],
      "name": "withdraw",
      "outputs": [],
      "stateMutability": "payable",
      "type": "function"
    }
  ],
  "bytecode": "0x60806040523480156200001157600080fd5b506040518060400160405280600d81526020017f4576656e74205469636b657473000000000000000000000000000000000000008152506040518060400160405280600381526020017f4554530000000000000000000000000000000000000000000000000000000000815250816000908051906020019062000096929190620000b8565b508060019080519060200190620000af929190620000b8565b505050620001cd565b828054620000c69062000168565b90600052602060002090601f016020900481019282620000ea576000855562000136565b82601f106200010557805160ff191683800117855562000136565b8280016001018555821562000136579182015b828111156200013557825182559160200191906001019062000118565b5b50905062000145919062000149565b5090565b5b80821115620001645760008160009055506001016200014a565b5090565b600060028204905060018216806200018157607f821691505b602082108114156200019857620001976200019e565b5b50919050565b7f4e487b7100000000000000000000000000000000000000000000000000000000600052602260045260246000fd5b61511280620001dd6000396000f3fe6080604052600436106101145760003560e01c80636352211e116100a0578063a64ba40f11610064578063a64ba40f146103b4578063b88d4fde146103f1578063c87b56dd1461041a578063e1856ff414610457578063e985e9c51461047357610114565b80636352211e146102ca57806370a08231146103075780638e19899e1461034457806395d89b4114610360578063a22cb4651461038b57610114565b806321744ec1116100e757806321744ec1146101e757806323b872dd14610224578063404aa8f91461024d57806342842e0e146102785780635555fe17146102a157610114565b806301ffc9a71461011957806306fdde0314610156578063081812fc14610181578063095ea7b3146101be575b600080fd5b34801561012557600080fd5b50610140600480360381019061013b9190612f6d565b6104b0565b60405161014d9190613d0c565b60405180910390f35b34801561016257600080fd5b5061016b610592565b6040516101789190613d27565b60405180910390f35b34801561018d57600080fd5b506101a860048036038101906101a391906130f9565b610624565b6040516101b59190613c5a565b60405180910390f35b3480156101ca57600080fd5b506101e560048036038101906101e09190612ecc565b61066a565b005b3480156101f357600080fd5b5061020e60048036038101906102099190613092565b610782565b60405161021b9190613d27565b60405180910390f35b34801561023057600080fd5b5061024b60048036038101906102469190612dc6565b61081b565b005b34801561025957600080fd5b5061026261087b565b60405161026f9190613cea565b60405180910390f35b34801561028457600080fd5b5061029f600480360381019061029a9190612dc6565b610a72565b005b3480156102ad57600080fd5b506102c860048036038101906102c39190612fbf565b610a92565b005b3480156102d657600080fd5b506102f160048036038101906102ec91906130f9565b610e02565b6040516102fe9190613c5a565b60405180910390f35b34801561031357600080fd5b5061032e60048036038101906103299190612d61565b610eb4565b60405161033b9190614029565b60405180910390f35b61035e60048036038101906103599190612f08565b610f6c565b005b34801561036c57600080fd5b506103756112dc565b6040516103829190613d27565b60405180910390f35b34801561039757600080fd5b506103b260048036038101906103ad9190612e90565b61136e565b005b3480156103c057600080fd5b506103db60048036038101906103d6919061303e565b611384565b6040516103e89190613d27565b60405180910390f35b3480156103fd57600080fd5b5061041860048036038101906104139190612e15565b6113e5565b005b34801561042657600080fd5b50610441600480360381019061043c91906130f9565b611447565b60405161044e9190613d27565b60405180910390f35b610471600480360381019061046c9190612f31565b61155a565b005b34801561047f57600080fd5b5061049a60048036038101906104959190612d8a565b6118d6565b6040516104a79190613d0c565b60405180910390f35b60007f80ac58cd000000000000000000000000000000000000000000000000000000007bffffffffffffffffffffffffffffffffffffffffffffffffffffffff1916827bffffffffffffffffffffffffffffffffffffffffffffffffffffffff1916148061057b57507f5b5e139f000000000000000000000000000000000000000000000000000000007bffffffffffffffffffffffffffffffffffffffffffffffffffffffff1916827bffffffffffffffffffffffffffffffffffffffffffffffffffffffff1916145b8061058b575061058a8261196a565b5b9050919050565b6060600080546105a190614362565b80601f01602080910402602001604051908101604052809291908181526020018280546105cd90614362565b801561061a5780601f106105ef5761010080835404028352916020019161061a565b820191906000526020600020905b8154815290600101906020018083116105fd57829003601f168201915b5050505050905090565b600061062f826119d4565b6004600083815260200190815260200160002060009054906101000a900473ffffffffffffffffffffffffffffffffffffffff169050919050565b600061067582610e02565b90508073ffffffffffffffffffffffffffffffffffffffff168373ffffffffffffffffffffffffffffffffffffffff1614156106e6576040517f08c379a00000000000000000000000000000000000000000000000000000000081526004016106dd90613f89565b60405180910390fd5b8073ffffffffffffffffffffffffffffffffffffffff16610705611a1f565b73ffffffffffffffffffffffffffffffffffffffff16148061073457506107338161072e611a1f565b6118d6565b5b610773576040517f08c379a000000000000000000000000000000000000000000000000000000000815260040161076a90613ee9565b60405180910390fd5b61077d8383611a27565b505050565b606060008461079085611ae0565b61079a8787611384565b6107a387611ae0565b6107c48773ffffffffffffffffffffffffffffffffffffffff166014611c8d565b6040516020016107d8959493929190613ada565b60405160208183030381529060405290506107f281611f87565b6040516020016108029190613c01565b6040516020818303038152906040529150509392505050565b61082c610826611a1f565b82612111565b61086b576040517f08c379a000000000000000000000000000000000000000000000000000000000815260040161086290614009565b60405180910390fd5b6108768383836121a6565b505050565b60606009805480602002602001604051908101604052809291908181526020016000905b82821015610a6957838290600052602060002090600602016040518060c00160405290816000820160009054906101000a900473ffffffffffffffffffffffffffffffffffffffff1673ffffffffffffffffffffffffffffffffffffffff1673ffffffffffffffffffffffffffffffffffffffff16815260200160018201548152602001600282015481526020016003820154815260200160048201805461094690614362565b80601f016020809104026020016040519081016040528092919081815260200182805461097290614362565b80156109bf5780601f10610994576101008083540402835291602001916109bf565b820191906000526020600020905b8154815290600101906020018083116109a257829003601f168201915b505050505081526020016005820180546109d890614362565b80601f0160208091040260200160405190810160405280929190818152602001828054610a0490614362565b8015610a515780601f10610a2657610100808354040283529160200191610a51565b820191906000526020600020905b815481529060010190602001808311610a3457829003601f168201915b5050505050815250508152602001906001019061089f565b50505050905090565b610a8d838383604051806020016040528060008152506113e5565b505050565b6000835111610ad6576040517f08c379a0000000000000000000000000000000000000000000000000000000008152600401610acd90613f29565b60405180910390fd5b6000825111610b1a576040517f08c379a0000000000000000000000000000000000000000000000000000000008152600401610b1190613e29565b60405180910390fd5b6000811015610b5e576040517f08c379a0000000000000000000000000000000000000000000000000000000008152600401610b5590613fe9565b60405180910390fd5b600033610b6b600a61240d565b604051602001610b7c929190613cc1565b604051602081830303815290604052805190602001209050610b9e600a61241b565b60006040518060c001604052803373ffffffffffffffffffffffffffffffffffffffff16815260200183815260200184815260200160008152602001868152602001858152509050600760003373ffffffffffffffffffffffffffffffffffffffff1673ffffffffffffffffffffffffffffffffffffffff168152602001908152602001600020829080600181540180825580915050600190039060005260206000200160009091909190915055806008600084815260200190815260200160002060008201518160000160006101000a81548173ffffffffffffffffffffffffffffffffffffffff021916908373ffffffffffffffffffffffffffffffffffffffff1602179055506020820151816001015560408201518160020155606082015181600301556080820151816004019080519060200190610ce1929190612b70565b5060a0820151816005019080519060200190610cfe929190612b70565b50905050600981908060018154018082558091505060019003906000526020600020906006020160009091909190915060008201518160000160006101000a81548173ffffffffffffffffffffffffffffffffffffffff021916908373ffffffffffffffffffffffffffffffffffffffff1602179055506020820151816001015560408201518160020155606082015181600301556080820151816004019080519060200190610daf929190612b70565b5060a0820151816005019080519060200190610dcc929190612b70565b5050507fe69a882a60c4c8ec844b0502a193795c243d55bc495c8c658c3572e81f7fb03c60405160405180910390a15050505050565b6000806002600084815260200190815260200160002060009054906101000a900473ffffffffffffffffffffffffffffffffffffffff169050600073ffffffffffffffffffffffffffffffffffffffff168173ffffffffffffffffffffffffffffffffffffffff161415610eab576040517f08c379a0000000000000000000000000000000000000000000000000000000008152600401610ea290613f69565b60405180910390fd5b80915050919050565b60008073ffffffffffffffffffffffffffffffffffffffff168273ffffffffffffffffffffffffffffffffffffffff161415610f25576040517f08c379a0000000000000000000000000000000000000000000000000000000008152600401610f1c90613ea9565b60405180910390fd5b600360008373ffffffffffffffffffffffffffffffffffffffff1673ffffffffffffffffffffffffffffffffffffffff168152602001908152602001600020549050919050565b6000600860008381526020019081526020016000206040518060c00160405290816000820160009054906101000a900473ffffffffffffffffffffffffffffffffffffffff1673ffffffffffffffffffffffffffffffffffffffff1673ffffffffffffffffffffffffffffffffffffffff16815260200160018201548152602001600282015481526020016003820154815260200160048201805461101090614362565b80601f016020809104026020016040519081016040528092919081815260200182805461103c90614362565b80156110895780601f1061105e57610100808354040283529160200191611089565b820191906000526020600020905b81548152906001019060200180831161106c57829003601f168201915b505050505081526020016005820180546110a290614362565b80601f01602080910402602001604051908101604052809291908181526020018280546110ce90614362565b801561111b5780601f106110f05761010080835404028352916020019161111b565b820191906000526020600020905b8154815290600101906020018083116110fe57829003601f168201915b5050505050815250509050806000015173ffffffffffffffffffffffffffffffffffffffff163373ffffffffffffffffffffffffffffffffffffffff1614611198576040517f08c379a000000000000000000000000000000000000000000000000000000000815260040161118f90613f49565b60405180910390fd5b60008160600151116111df576040517f08c379a00000000000000000000000000000000000000000000000000000000081526004016111d690613e89565b60405180910390fd5b60003373ffffffffffffffffffffffffffffffffffffffff16826060015160405161120990613c23565b60006040518083038185875af1925050503d8060008114611246576040519150601f19603f3d011682016040523d82523d6000602084013e61124b565b606091505b505090508061128f576040517f08c379a000000000000000000000000000000000000000000000000000000000815260040161128690613d89565b60405180910390fd5b600060086000858152602001908152602001600020600301819055507f16af3be4b8a65deb220ba132f7fd173f46f54ca05c0e0cdde29d607e1227208160405160405180910390a1505050565b6060600180546112eb90614362565b80601f016020809104026020016040519081016040528092919081815260200182805461131790614362565b80156113645780601f1061133957610100808354040283529160200191611364565b820191906000526020600020905b81548152906001019060200180831161134757829003601f168201915b5050505050905090565b611380611379611a1f565b8383612431565b5050565b606060008361139284611ae0565b6040516020016113a3929190613a48565b60405160208183030381529060405290506113bd81611f87565b6040516020016113cd9190613c38565b60405160208183030381529060405291505092915050565b6113f66113f0611a1f565b83612111565b611435576040517f08c379a000000000000000000000000000000000000000000000000000000000815260040161142c90614009565b60405180910390fd5b6114418484848461259e565b50505050565b6060611452826119d4565b600060066000848152602001908152602001600020805461147290614362565b80601f016020809104026020016040519081016040528092919081815260200182805461149e90614362565b80156114eb5780601f106114c0576101008083540402835291602001916114eb565b820191906000526020600020905b8154815290600101906020018083116114ce57829003601f168201915b5050505050905060006114fc6125fa565b9050600081511415611512578192505050611555565b60008251111561154757808260405160200161152f929190613a24565b60405160208183030381529060405292505050611555565b61155084612611565b925050505b919050565b6000602060ff16116115a1576040517f08c379a000000000000000000000000000000000000000000000000000000000815260040161159890613fc9565b60405180910390fd5b8034146115e3576040517f08c379a00000000000000000000000000000000000000000000000000000000081526004016115da90613e09565b60405180910390fd5b6000600860008481526020019081526020016000206040518060c00160405290816000820160009054906101000a900473ffffffffffffffffffffffffffffffffffffffff1673ffffffffffffffffffffffffffffffffffffffff1673ffffffffffffffffffffffffffffffffffffffff16815260200160018201548152602001600282015481526020016003820154815260200160048201805461168790614362565b80601f01602080910402602001604051908101604052809291908181526020018280546116b390614362565b80156117005780601f106116d557610100808354040283529160200191611700565b820191906000526020600020905b8154815290600101906020018083116116e357829003601f168201915b5050505050815260200160058201805461171990614362565b80601f016020809104026020016040519081016040528092919081815260200182805461174590614362565b80156117925780601f1061176757610100808354040283529160200191611792565b820191906000526020600020905b81548152906001019060200180831161177557829003601f168201915b50505050508152505090506000816080015151116117e5576040517f08c379a00000000000000000000000000000000000000000000000000000000081526004016117dc90613fa9565b60405180910390fd5b6000821180156117f85750806040015182145b611837576040517f08c379a000000000000000000000000000000000000000000000000000000000815260040161182e90613d49565b60405180910390fd5b8160086000858152602001908152602001600020600201600082825461185d9190614163565b9250508190555061186e600b61241b565b600061187a600b61240d565b90506118863382612679565b600061189783608001518333610782565b90506118a38282612697565b7f01dc620e1463580590fb5cdc304885773f0c003b62292763275e1c95202dc30560405160405180910390a15050505050565b6000600560008473ffffffffffffffffffffffffffffffffffffffff1673ffffffffffffffffffffffffffffffffffffffff16815260200190815260200160002060008373ffffffffffffffffffffffffffffffffffffffff1673ffffffffffffffffffffffffffffffffffffffff16815260200190815260200160002060009054906101000a900460ff16905092915050565b60007f01ffc9a7000000000000000000000000000000000000000000000000000000007bffffffffffffffffffffffffffffffffffffffffffffffffffffffff1916827bffffffffffffffffffffffffffffffffffffffffffffffffffffffff1916149050919050565b6119dd8161270b565b611a1c576040517f08c379a0000000000000000000000000000000000000000000000000000000008152600401611a1390613f69565b60405180910390fd5b50565b600033905090565b816004600083815260200190815260200160002060006101000a81548173ffffffffffffffffffffffffffffffffffffffff021916908373ffffffffffffffffffffffffffffffffffffffff160217905550808273ffffffffffffffffffffffffffffffffffffffff16611a9a83610e02565b73ffffffffffffffffffffffffffffffffffffffff167f8c5be1e5ebec7d5bd14f71427d1e84f3dd0314c0f7b2291e5b200ac8c7c3b92560405160405180910390a45050565b60606000821415611b28576040518060400160405280600181526020017f30000000000000000000000000000000000000000000000000000000000000008152509050611c88565b600082905060005b60008214611b5a578080611b43906143c5565b915050600a82611b5391906141b9565b9150611b30565b60008167ffffffffffffffff811115611b9c577f4e487b7100000000000000000000000000000000000000000000000000000000600052604160045260246000fd5b6040519080825280601f01601f191660200182016040528015611bce5781602001600182028036833780820191505090505b5090505b60008514611c8157600182611be79190614244565b9150600a85611bf6919061440e565b6030611c029190614163565b60f81b818381518110611c3e577f4e487b7100000000000000000000000000000000000000000000000000000000600052603260045260246000fd5b60200101907effffffffffffffffffffffffffffffffffffffffffffffffffffffffffffff1916908160001a905350600a85611c7a91906141b9565b9450611bd2565b8093505050505b919050565b606060006002836002611ca091906141ea565b611caa9190614163565b67ffffffffffffffff811115611ce9577f4e487b7100000000000000000000000000000000000000000000000000000000600052604160045260246000fd5b6040519080825280601f01601f191660200182016040528015611d1b5781602001600182028036833780820191505090505b5090507f300000000000000000000000000000000000000000000000000000000000000081600081518110611d79577f4e487b7100000000000000000000000000000000000000000000000000000000600052603260045260246000fd5b60200101907effffffffffffffffffffffffffffffffffffffffffffffffffffffffffffff1916908160001a9053507f780000000000000000000000000000000000000000000000000000000000000081600181518110611e03577f4e487b7100000000000000000000000000000000000000000000000000000000600052603260045260246000fd5b60200101907effffffffffffffffffffffffffffffffffffffffffffffffffffffffffffff1916908160001a90535060006001846002611e4391906141ea565b611e4d9190614163565b90505b6001811115611f39577f3031323334353637383961626364656600000000000000000000000000000000600f861660108110611eb5577f4e487b7100000000000000000000000000000000000000000000000000000000600052603260045260246000fd5b1a60f81b828281518110611ef2577f4e487b7100000000000000000000000000000000000000000000000000000000600052603260045260246000fd5b60200101907effffffffffffffffffffffffffffffffffffffffffffffffffffffffffffff1916908160001a905350600485901c945080611f3290614338565b9050611e50565b5060008414611f7d576040517f08c379a0000000000000000000000000000000000000000000000000000000008152600401611f7490613d69565b60405180910390fd5b8091505092915050565b6060600082511415611faa5760405180602001604052806000815250905061210c565b600060405180606001604052806040815260200161509d6040913990506000600360028551611fd99190614163565b611fe391906141b9565b6004611fef91906141ea565b67ffffffffffffffff81111561202e577f4e487b7100000000000000000000000000000000000000000000000000000000600052604160045260246000fd5b6040519080825280601f01601f1916602001820160405280156120605781602001600182028036833780820191505090505b509050600182016020820185865187015b808210156120cc576003820191508151603f8160121c168501518453600184019350603f81600c1c168501518453600184019350603f8160061c168501518453600184019350603f8116850151845360018401935050612071565b50506003865106600181146120e857600281146120fb57612103565b603d6001830353603d6002830353612103565b603d60018303535b50505080925050505b919050565b60008061211d83610e02565b90508073ffffffffffffffffffffffffffffffffffffffff168473ffffffffffffffffffffffffffffffffffffffff16148061215f575061215e81856118d6565b5b8061219d57508373ffffffffffffffffffffffffffffffffffffffff1661218584610624565b73ffffffffffffffffffffffffffffffffffffffff16145b91505092915050565b8273ffffffffffffffffffffffffffffffffffffffff166121c682610e02565b73ffffffffffffffffffffffffffffffffffffffff161461221c576040517f08c379a000000000000000000000000000000000000000000000000000000000815260040161221390613dc9565b60405180910390fd5b600073ffffffffffffffffffffffffffffffffffffffff168273ffffffffffffffffffffffffffffffffffffffff16141561228c576040517f08c379a000000000000000000000000000000000000000000000000000000000815260040161228390613e49565b60405180910390fd5b612297838383612777565b6122a2600082611a27565b6001600360008573ffffffffffffffffffffffffffffffffffffffff1673ffffffffffffffffffffffffffffffffffffffff16815260200190815260200160002060008282546122f29190614244565b925050819055506001600360008473ffffffffffffffffffffffffffffffffffffffff1673ffffffffffffffffffffffffffffffffffffffff16815260200190815260200160002060008282546123499190614163565b92505081905550816002600083815260200190815260200160002060006101000a81548173ffffffffffffffffffffffffffffffffffffffff021916908373ffffffffffffffffffffffffffffffffffffffff160217905550808273ffffffffffffffffffffffffffffffffffffffff168473ffffffffffffffffffffffffffffffffffffffff167fddf252ad1be2c89b69c2b068fc378daa952ba7f163c4a11628f55a4df523b3ef60405160405180910390a461240883838361277c565b505050565b600081600001549050919050565b6001816000016000828254019250508190555050565b8173ffffffffffffffffffffffffffffffffffffffff168373ffffffffffffffffffffffffffffffffffffffff1614156124a0576040517f08c379a000000000000000000000000000000000000000000000000000000000815260040161249790613e69565b60405180910390fd5b80600560008573ffffffffffffffffffffffffffffffffffffffff1673ffffffffffffffffffffffffffffffffffffffff16815260200190815260200160002060008473ffffffffffffffffffffffffffffffffffffffff1673ffffffffffffffffffffffffffffffffffffffff16815260200190815260200160002060006101000a81548160ff0219169083151502179055508173ffffffffffffffffffffffffffffffffffffffff168373ffffffffffffffffffffffffffffffffffffffff167f17307eab39ab6107e8899845ad3d59bd9653f200f220920489ca2b5937696c31836040516125919190613d0c565b60405180910390a3505050565b6125a98484846121a6565b6125b584848484612781565b6125f4576040517f08c379a00000000000000000000000000000000000000000000000000000000081526004016125eb90613da9565b60405180910390fd5b50505050565b606060405180602001604052806000815250905090565b606061261c826119d4565b60006126266125fa565b905060008151116126465760405180602001604052806000815250612671565b8061265084611ae0565b604051602001612661929190613a24565b6040516020818303038152906040525b915050919050565b612693828260405180602001604052806000815250612918565b5050565b6126a08261270b565b6126df576040517f08c379a00000000000000000000000000000000000000000000000000000000081526004016126d690613ec9565b60405180910390fd5b80600660008481526020019081526020016000209080519060200190612706929190612b70565b505050565b60008073ffffffffffffffffffffffffffffffffffffffff166002600084815260200190815260200160002060009054906101000a900473ffffffffffffffffffffffffffffffffffffffff1673ffffffffffffffffffffffffffffffffffffffff1614159050919050565b505050565b505050565b60006127a28473ffffffffffffffffffffffffffffffffffffffff16612973565b1561290b578373ffffffffffffffffffffffffffffffffffffffff1663150b7a026127cb611a1f565b8786866040518563ffffffff1660e01b81526004016127ed9493929190613c75565b602060405180830381600087803b15801561280757600080fd5b505af192505050801561283857506040513d601f19601f820116820180604052508101906128359190612f96565b60015b6128bb573d8060008114612868576040519150601f19603f3d011682016040523d82523d6000602084013e61286d565b606091505b506000815114156128b3576040517f08c379a00000000000000000000000000000000000000000000000000000000081526004016128aa90613da9565b60405180910390fd5b805181602001fd5b63150b7a0260e01b7bffffffffffffffffffffffffffffffffffffffffffffffffffffffff1916817bffffffffffffffffffffffffffffffffffffffffffffffffffffffff191614915050612910565b600190505b949350505050565b6129228383612996565b61292f6000848484612781565b61296e576040517f08c379a000000000000000000000000000000000000000000000000000000000815260040161296590613da9565b60405180910390fd5b505050565b6000808273ffffffffffffffffffffffffffffffffffffffff163b119050919050565b600073ffffffffffffffffffffffffffffffffffffffff168273ffffffffffffffffffffffffffffffffffffffff161415612a06576040517f08c379a00000000000000000000000000000000000000000000000000000000081526004016129fd90613f09565b60405180910390fd5b612a0f8161270b565b15612a4f576040517f08c379a0000000000000000000000000000000000000000000000000000000008152600401612a4690613de9565b60405180910390fd5b612a5b60008383612777565b6001600360008473ffffffffffffffffffffffffffffffffffffffff1673ffffffffffffffffffffffffffffffffffffffff1681526020019081526020016000206000828254612aab9190614163565b92505081905550816002600083815260200190815260200160002060006101000a81548173ffffffffffffffffffffffffffffffffffffffff021916908373ffffffffffffffffffffffffffffffffffffffff160217905550808273ffffffffffffffffffffffffffffffffffffffff16600073ffffffffffffffffffffffffffffffffffffffff167fddf252ad1be2c89b69c2b068fc378daa952ba7f163c4a11628f55a4df523b3ef60405160405180910390a4612b6c6000838361277c565b5050565b828054612b7c90614362565b90600052602060002090601f016020900481019282612b9e5760008555612be5565b82601f10612bb757805160ff1916838001178555612be5565b82800160010185558215612be5579182015b82811115612be4578251825591602001919060010190612bc9565b5b509050612bf29190612bf6565b5090565b5b80821115612c0f576000816000905550600101612bf7565b5090565b6000612c26612c2184614069565b614044565b905082815260208101848484011115612c3e57600080fd5b612c498482856142f6565b509392505050565b6000612c64612c5f8461409a565b614044565b905082815260208101848484011115612c7c57600080fd5b612c878482856142f6565b509392505050565b600081359050612c9e81615029565b92915050565b600081359050612cb381615040565b92915050565b600081359050612cc881615057565b92915050565b600081359050612cdd8161506e565b92915050565b600081519050612cf28161506e565b92915050565b600082601f830112612d0957600080fd5b8135612d19848260208601612c13565b91505092915050565b600082601f830112612d3357600080fd5b8135612d43848260208601612c51565b91505092915050565b600081359050612d5b81615085565b92915050565b600060208284031215612d7357600080fd5b6000612d8184828501612c8f565b91505092915050565b60008060408385031215612d9d57600080fd5b6000612dab85828601612c8f565b9250506020612dbc85828601612c8f565b9150509250929050565b600080600060608486031215612ddb57600080fd5b6000612de986828701612c8f565b9350506020612dfa86828701612c8f565b9250506040612e0b86828701612d4c565b9150509250925092565b60008060008060808587031215612e2b57600080fd5b6000612e3987828801612c8f565b9450506020612e4a87828801612c8f565b9350506040612e5b87828801612d4c565b925050606085013567ffffffffffffffff811115612e7857600080fd5b612e8487828801612cf8565b91505092959194509250565b60008060408385031215612ea357600080fd5b6000612eb185828601612c8f565b9250506020612ec285828601612ca4565b9150509250929050565b60008060408385031215612edf57600080fd5b6000612eed85828601612c8f565b9250506020612efe85828601612d4c565b9150509250929050565b600060208284031215612f1a57600080fd5b6000612f2884828501612cb9565b91505092915050565b60008060408385031215612f4457600080fd5b6000612f5285828601612cb9565b9250506020612f6385828601612d4c565b9150509250929050565b600060208284031215612f7f57600080fd5b6000612f8d84828501612cce565b91505092915050565b600060208284031215612fa857600080fd5b6000612fb684828501612ce3565b91505092915050565b600080600060608486031215612fd457600080fd5b600084013567ffffffffffffffff811115612fee57600080fd5b612ffa86828701612d22565b935050602084013567ffffffffffffffff81111561301757600080fd5b61302386828701612d22565b925050604061303486828701612d4c565b9150509250925092565b6000806040838503121561305157600080fd5b600083013567ffffffffffffffff81111561306b57600080fd5b61307785828601612d22565b925050602061308885828601612d4c565b9150509250929050565b6000806000606084860312156130a757600080fd5b600084013567ffffffffffffffff8111156130c157600080fd5b6130cd86828701612d22565b93505060206130de86828701612d4c565b92505060406130ef86828701612c8f565b9150509250925092565b60006020828403121561310b57600080fd5b600061311984828501612d4c565b91505092915050565b600061312e8383613976565b905092915050565b61313f81614278565b82525050565b61314e81614278565b82525050565b600061315f826140db565b6131698185614109565b93508360208202850161317b856140cb565b8060005b858110156131b757848403895281516131988582613122565b94506131a3836140fc565b925060208a0199505060018101905061317f565b50829750879550505050505092915050565b6131d28161428a565b82525050565b6131e181614296565b82525050565b60006131f2826140e6565b6131fc818561411a565b935061320c818560208601614305565b613215816144fb565b840191505092915050565b600061322b826140f1565b6132358185614136565b9350613245818560208601614305565b61324e816144fb565b840191505092915050565b6000613264826140f1565b61326e8185614147565b935061327e818560208601614305565b613287816144fb565b840191505092915050565b600061329d826140f1565b6132a78185614158565b93506132b7818560208601614305565b80840191505092915050565b60006132d0602b83614147565b91506132db8261450c565b604082019050919050565b60006132f3600283614158565b91506132fe8261455b565b600282019050919050565b6000613316602083614147565b915061332182614584565b602082019050919050565b6000613339601b83614147565b9150613344826145ad565b602082019050919050565b600061335c603283614147565b9150613367826145d6565b604082019050919050565b600061337f600283614158565b915061338a82614625565b600282019050919050565b60006133a2602583614147565b91506133ad8261464e565b604082019050919050565b60006133c5601c83614147565b91506133d08261469d565b602082019050919050565b60006133e8600e83614147565b91506133f3826146c6565b602082019050919050565b600061340b601083614147565b9150613416826146ef565b602082019050919050565b600061342e603083614158565b915061343982614718565b603082019050919050565b6000613451606283614158565b915061345c82614767565b606282019050919050565b6000613474602483614147565b915061347f82614802565b604082019050919050565b6000613497601983614147565b91506134a282614851565b602082019050919050565b60006134ba605383614158565b91506134c58261487a565b605382019050919050565b60006134dd603983614147565b91506134e8826148ef565b604082019050919050565b6000613500602983614147565b915061350b8261493e565b604082019050919050565b6000613523600183614158565b915061352e8261498d565b600182019050919050565b6000613546602e83614147565b9150613551826149b6565b604082019050919050565b6000613569600783614158565b915061357482614a05565b600782019050919050565b600061358c600783614158565b915061359782614a2e565b600782019050919050565b60006135af603e83614147565b91506135ba82614a57565b604082019050919050565b60006135d2602083614147565b91506135dd82614aa6565b602082019050919050565b60006135f5600183614158565b915061360082614acf565b600182019050919050565b6000613618600c83614147565b915061362382614af8565b602082019050919050565b600061363b601983614158565b915061364682614b21565b601982019050919050565b600061365e600983614158565b915061366982614b4a565b600982019050919050565b6000613681600383614158565b915061368c82614b73565b600382019050919050565b60006136a4600183614158565b91506136af82614b9c565b600182019050919050565b60006136c7600f83614158565b91506136d282614bc5565b600f82019050919050565b60006136ea600a83614158565b91506136f582614bee565b600a82019050919050565b600061370d602383614147565b915061371882614c17565b604082019050919050565b6000613730601883614147565b915061373b82614c66565b602082019050919050565b6000613753601d83614158565b915061375e82614c8f565b601d82019050919050565b6000613776600183614158565b915061378182614cb8565b600182019050919050565b6000613799602183614147565b91506137a482614ce1565b604082019050919050565b60006137bc604a83614158565b91506137c782614d30565b604a82019050919050565b60006137df601d83614158565b91506137ea82614da5565b601d82019050919050565b6000613802605383614158565b915061380d82614dce565b605382019050919050565b600061382560008361412b565b915061383082614e43565b600082019050919050565b6000613848604883614158565b915061385382614e46565b604882019050919050565b600061386b600883614158565b915061387682614ebb565b600882019050919050565b600061388e600f83614147565b915061389982614ee4565b602082019050919050565b60006138b1600a83614158565b91506138bc82614f0d565b600a82019050919050565b60006138d4601483614147565b91506138df82614f36565b602082019050919050565b60006138f7600d83614147565b915061390282614f5f565b602082019050919050565b600061391a602e83614147565b915061392582614f88565b604082019050919050565b600061393d600683614158565b915061394882614fd7565b600682019050919050565b6000613960601a83614158565b915061396b82615000565b601a82019050919050565b600060c08301600083015161398e6000860182613136565b5060208301516139a160208601826131d8565b5060408301516139b46040860182613a06565b5060608301516139c76060860182613a06565b50608083015184820360808601526139df8282613220565b91505060a083015184820360a08601526139f98282613220565b9150508091505092915050565b613a0f816142ec565b82525050565b613a1e816142ec565b82525050565b6000613a308285613292565b9150613a3c8284613292565b91508190509392505050565b6000613a5382613444565b9150613a5e826137af565b9150613a6982613421565b9150613a74826134ad565b9150613a7f8261355c565b9150613a8b8285613292565b9150613a968261357f565b9150613aa1826137f5565b9150613aac8261385e565b9150613ab88284613292565b9150613ac38261357f565b9150613ace82613930565b91508190509392505050565b6000613ae582613697565b9150613af082613651565b9150613afc8288613292565b9150613b0782613674565b9150613b138287613292565b9150613b1e82613372565b9150613b298261383b565b9150613b34826138a4565b9150613b408286613292565b9150613b4b82613372565b9150613b56826136ba565b9150613b6182613697565b9150613b6c8261362e565b9150613b77826136dd565b9150613b838285613292565b9150613b8e82613516565b9150613b99826132e6565b9150613ba482613697565b9150613baf82613746565b9150613bba826136dd565b9150613bc68284613292565b9150613bd182613516565b9150613bdc826135e8565b9150613be782613769565b9150613bf2826135e8565b91508190509695505050505050565b6000613c0c826137d2565b9150613c188284613292565b915081905092915050565b6000613c2e82613818565b9150819050919050565b6000613c4382613953565b9150613c4f8284613292565b915081905092915050565b6000602082019050613c6f6000830184613145565b92915050565b6000608082019050613c8a6000830187613145565b613c976020830186613145565b613ca46040830185613a15565b8181036060830152613cb681846131e7565b905095945050505050565b6000604082019050613cd66000830185613145565b613ce36020830184613a15565b9392505050565b60006020820190508181036000830152613d048184613154565b905092915050565b6000602082019050613d2160008301846131c9565b92915050565b60006020820190508181036000830152613d418184613259565b905092915050565b60006020820190508181036000830152613d62816132c3565b9050919050565b60006020820190508181036000830152613d8281613309565b9050919050565b60006020820190508181036000830152613da28161332c565b9050919050565b60006020820190508181036000830152613dc28161334f565b9050919050565b60006020820190508181036000830152613de281613395565b9050919050565b60006020820190508181036000830152613e02816133b8565b9050919050565b60006020820190508181036000830152613e22816133db565b9050919050565b60006020820190508181036000830152613e42816133fe565b9050919050565b60006020820190508181036000830152613e6281613467565b9050919050565b60006020820190508181036000830152613e828161348a565b9050919050565b60006020820190508181036000830152613ea2816134d0565b9050919050565b60006020820190508181036000830152613ec2816134f3565b9050919050565b60006020820190508181036000830152613ee281613539565b9050919050565b60006020820190508181036000830152613f02816135a2565b9050919050565b60006020820190508181036000830152613f22816135c5565b9050919050565b60006020820190508181036000830152613f428161360b565b9050919050565b60006020820190508181036000830152613f6281613700565b9050919050565b60006020820190508181036000830152613f8281613723565b9050919050565b60006020820190508181036000830152613fa28161378c565b9050919050565b60006020820190508181036000830152613fc281613881565b9050919050565b60006020820190508181036000830152613fe2816138c7565b9050919050565b60006020820190508181036000830152614002816138ea565b9050919050565b600060208201905081810360008301526140228161390d565b9050919050565b600060208201905061403e6000830184613a15565b92915050565b600061404e61405f565b905061405a8282614394565b919050565b6000604051905090565b600067ffffffffffffffff821115614084576140836144cc565b5b61408d826144fb565b9050602081019050919050565b600067ffffffffffffffff8211156140b5576140b46144cc565b5b6140be826144fb565b9050602081019050919050565b6000819050602082019050919050565b600081519050919050565b600081519050919050565b600081519050919050565b6000602082019050919050565b600082825260208201905092915050565b600082825260208201905092915050565b600081905092915050565b600082825260208201905092915050565b600082825260208201905092915050565b600081905092915050565b600061416e826142ec565b9150614179836142ec565b9250827fffffffffffffffffffffffffffffffffffffffffffffffffffffffffffffffff038211156141ae576141ad61443f565b5b828201905092915050565b60006141c4826142ec565b91506141cf836142ec565b9250826141df576141de61446e565b5b828204905092915050565b60006141f5826142ec565b9150614200836142ec565b9250817fffffffffffffffffffffffffffffffffffffffffffffffffffffffffffffffff04831182151516156142395761423861443f565b5b828202905092915050565b600061424f826142ec565b915061425a836142ec565b92508282101561426d5761426c61443f565b5b828203905092915050565b6000614283826142cc565b9050919050565b60008115159050919050565b6000819050919050565b60007fffffffff0000000000000000000000000000000000000000000000000000000082169050919050565b600073ffffffffffffffffffffffffffffffffffffffff82169050919050565b6000819050919050565b82818337600083830152505050565b60005b83811015614323578082015181840152602081019050614308565b83811115614332576000848401525b50505050565b6000614343826142ec565b915060008214156143575761435661443f565b5b600182039050919050565b6000600282049050600182168061437a57607f821691505b6020821081141561438e5761438d61449d565b5b50919050565b61439d826144fb565b810181811067ffffffffffffffff821117156143bc576143bb6144cc565b5b80604052505050565b60006143d0826142ec565b91507fffffffffffffffffffffffffffffffffffffffffffffffffffffffffffffffff8214156144035761440261443f565b5b600182019050919050565b6000614419826142ec565b9150614424836142ec565b9250826144345761443361446e565b5b828206905092915050565b7f4e487b7100000000000000000000000000000000000000000000000000000000600052601160045260246000fd5b7f4e487b7100000000000000000000000000000000000000000000000000000000600052601260045260246000fd5b7f4e487b7100000000000000000000000000000000000000000000000000000000600052602260045260246000fd5b7f4e487b7100000000000000000000000000000000000000000000000000000000600052604160045260246000fd5b6000601f19601f8301169050919050565b7f5061696420616d6f756e7420646f6573206e6f74206d6174636820776974682060008201527f6576656e74207072696365000000000000000000000000000000000000000000602082015250565b7f7d2c000000000000000000000000000000000000000000000000000000000000600082015250565b7f537472696e67733a20686578206c656e67746820696e73756666696369656e74600082015250565b7f5769746864726177207472616e73616374696f6e206661696c65640000000000600082015250565b7f4552433732313a207472616e7366657220746f206e6f6e20455243373231526560008201527f63656976657220696d706c656d656e7465720000000000000000000000000000602082015250565b7f222c000000000000000000000000000000000000000000000000000000000000600082015250565b7f4552433732313a207472616e736665722066726f6d20696e636f72726563742060008201527f6f776e6572000000000000000000000000000000000000000000000000000000602082015250565b7f4552433732313a20746f6b656e20616c7265616479206d696e74656400000000600082015250565b7f496e76616c696420616d6f756e74000000000000000000000000000000000000600082015250565b7f4461746574696d65206e6f742073657400000000000000000000000000000000600082015250565b7f3c726563742077696474683d223130302522206865696768743d22313030252260008201527f2066696c6c3d22626c61636b22202f3e00000000000000000000000000000000602082015250565b7f3c73766720786d6c6e733d22687474703a2f2f7777772e77332e6f72672f323060008201527f30302f73766722207072657365727665417370656374526174696f3d22784d6960208201527f6e594d696e206d656574222076696577426f783d22302030203335302033353060408201527f223e000000000000000000000000000000000000000000000000000000000000606082015250565b7f4552433732313a207472616e7366657220746f20746865207a65726f2061646460008201527f7265737300000000000000000000000000000000000000000000000000000000602082015250565b7f4552433732313a20617070726f766520746f2063616c6c657200000000000000600082015250565b7f3c7465787420783d223530252220793d223430252220636c6173733d2262617360008201527f652220646f6d696e616e742d626173656c696e653d226d6964646c652220746560208201527f78742d616e63686f723d226d6964646c65223e00000000000000000000000000604082015250565b7f54686973206576656e7420686173206e6f20696e636f6d65206f72206974206860008201527f617320616c7265616479206265656e2077697468647261776e00000000000000602082015250565b7f4552433732313a2061646472657373207a65726f206973206e6f74206120766160008201527f6c6964206f776e65720000000000000000000000000000000000000000000000602082015250565b7f2200000000000000000000000000000000000000000000000000000000000000600082015250565b7f45524337323155524953746f726167653a2055524920736574206f66206e6f6e60008201527f6578697374656e7420746f6b656e000000000000000000000000000000000000602082015250565b7f4576656e743a2000000000000000000000000000000000000000000000000000600082015250565b7f3c2f746578743e00000000000000000000000000000000000000000000000000600082015250565b7f4552433732313a20617070726f76652063616c6c6572206973206e6f7420746f60008201527f6b656e206f776e6572206e6f7220617070726f76656420666f7220616c6c0000602082015250565b7f4552433732313a206d696e7420746f20746865207a65726f2061646472657373600082015250565b7f7d00000000000000000000000000000000000000000000000000000000000000600082015250565b7f4e616d65206e6f74207365740000000000000000000000000000000000000000600082015250565b7f2274726169745f74797065223a2022546f6b656e204944222c00000000000000600082015250565b7f226e616d65223a20220000000000000000000000000000000000000000000000600082015250565b7f202d200000000000000000000000000000000000000000000000000000000000600082015250565b7f7b00000000000000000000000000000000000000000000000000000000000000600082015250565b7f2261747472696275746573223a205b0000000000000000000000000000000000600082015250565b7f2276616c7565223a202200000000000000000000000000000000000000000000600082015250565b7f596f7520617265206e6f7420746865206f776e6572206f66207468697320657660008201527f656e740000000000000000000000000000000000000000000000000000000000602082015250565b7f4552433732313a20696e76616c696420746f6b656e2049440000000000000000600082015250565b7f2274726169745f74797065223a20225469636b6574206f776e6572222c000000600082015250565b7f5d00000000000000000000000000000000000000000000000000000000000000600082015250565b7f4552433732313a20617070726f76616c20746f2063757272656e74206f776e6560008201527f7200000000000000000000000000000000000000000000000000000000000000602082015250565b7f3c7374796c653e2e62617365207b2066696c6c3a2077686974653b20666f6e7460008201527f2d66616d696c793a2073657269663b20666f6e742d73697a653a20313470783b60208201527f207d3c2f7374796c653e00000000000000000000000000000000000000000000604082015250565b7f646174613a6170706c69636174696f6e2f6a736f6e3b6261736536342c000000600082015250565b7f3c7465787420783d223530252220793d223530252220636c6173733d2262617360008201527f652220646f6d696e616e742d626173656c696e653d226d6964646c652220746560208201527f78742d616e63686f723d226d6964646c65223e00000000000000000000000000604082015250565b50565b7f226465736372697074696f6e223a20225469636b657420666f7220616e20657660008201527f656e742067656e657261746564206279204576656e745469636b65747320636f60208201527f6e7472616374222c000000000000000000000000000000000000000000000000604082015250565b7f5469636b65743a20000000000000000000000000000000000000000000000000600082015250565b7f4576656e74206e6f7420666f756e640000000000000000000000000000000000600082015250565b7f22696d616765223a202200000000000000000000000000000000000000000000600082015250565b7f4576656e74204944206e6f7420646566696e6564000000000000000000000000600082015250565b7f496e76616c696420707269636500000000000000000000000000000000000000600082015250565b7f4552433732313a2063616c6c6572206973206e6f7420746f6b656e206f776e6560008201527f72206e6f7220617070726f766564000000000000000000000000000000000000602082015250565b7f3c2f7376673e0000000000000000000000000000000000000000000000000000600082015250565b7f646174613a696d6167652f7376672b786d6c3b6261736536342c000000000000600082015250565b61503281614278565b811461503d57600080fd5b50565b6150498161428a565b811461505457600080fd5b50565b61506081614296565b811461506b57600080fd5b50565b615077816142a0565b811461508257600080fd5b50565b61508e816142ec565b811461509957600080fd5b5056fe4142434445464748494a4b4c4d4e4f505152535455565758595a6162636465666768696a6b6c6d6e6f707172737475767778797a303132333435363738392b2fa26469706673582212208c0fc95f124160def410126cb43f5b386aa8defe5901cf972c10fd3475b9d67264736f6c63430008040033",
  "linkReferences": {},
  "deployedLinkReferences": {}
}