{
  "_format": "hh-sol-artifact-1",
  "contractName": "Greeter",
  "sourceName": "contracts/Greeter.sol",
  "abi": [
    {
      "inputs": [
        {
          "internalType": "string",
          "name": "_greeting",
          "type": "string"
        }
      ],
      "stateMutability": "nonpayable",
      "type": "constructor"
    },
    {
      "anonymous": false,
      "inputs": [
        {
          "indexed": false,
          "internalType": "uint256",
          "name": "balance",
          "type": "uint256"
        }
      ],
      "name": "BalanceChanged",
      "type": "event"
    },
    {
      "inputs": [
        {
          "internalType": "uint256",
          "name": "amount",
          "type": "uint256"
        }
      ],
      "name": "deposit",
      "outputs": [],
      "stateMutability": "payable",
      "type": "function"
    },
    {
      "inputs": [],
      "name": "getBalance",
      "outputs": [
        {
          "internalType": "uint256",
          "name": "",
          "type": "uint256"
        }
      ],
      "stateMutability": "view",
      "type": "function"
    },
    {
      "inputs": [],
      "name": "greet",
      "outputs": [
        {
          "internalType": "string",
          "name": "",
          "type": "string"
        }
      ],
      "stateMutability": "view",
      "type": "function"
    },
    {
      "inputs": [
        {
          "internalType": "string",
          "name": "_greeting",
          "type": "string"
        }
      ],
      "name": "setGreeting",
      "outputs": [],
      "stateMutability": "nonpayable",
      "type": "function"
    },
    {
      "inputs": [
        {
          "internalType": "uint256",
          "name": "amount",
          "type": "uint256"
        }
      ],
      "name": "withdraw",
      "outputs": [],
      "stateMutability": "nonpayable",
      "type": "function"
    }
  ],
  "bytecode": "0x60806040523480156200001157600080fd5b5060405162000f6d38038062000f6d833981810160405281019062000037919062000278565b6200006760405180606001604052806022815260200162000f4b60229139826200008760201b620004421760201c565b80600090805190602001906200007f92919062000156565b5050620004c5565b620001298282604051602401620000a0929190620002fe565b6040516020818303038152906040527f4b5c4277000000000000000000000000000000000000000000000000000000007bffffffffffffffffffffffffffffffffffffffffffffffffffffffff19166020820180517bffffffffffffffffffffffffffffffffffffffffffffffffffffffff83818316178352505050506200012d60201b60201c565b5050565b60008151905060006a636f6e736f6c652e6c6f679050602083016000808483855afa5050505050565b8280546200016490620003ea565b90600052602060002090601f016020900481019282620001885760008555620001d4565b82601f10620001a357805160ff1916838001178555620001d4565b82800160010185558215620001d4579182015b82811115620001d3578251825591602001919060010190620001b6565b5b509050620001e39190620001e7565b5090565b5b8082111562000202576000816000905550600101620001e8565b5090565b60006200021d620002178462000362565b62000339565b9050828152602081018484840111156200023657600080fd5b62000243848285620003b4565b509392505050565b600082601f8301126200025d57600080fd5b81516200026f84826020860162000206565b91505092915050565b6000602082840312156200028b57600080fd5b600082015167ffffffffffffffff811115620002a657600080fd5b620002b4848285016200024b565b91505092915050565b6000620002ca8262000398565b620002d68185620003a3565b9350620002e8818560208601620003b4565b620002f381620004b4565b840191505092915050565b600060408201905081810360008301526200031a8185620002bd565b90508181036020830152620003308184620002bd565b90509392505050565b60006200034562000358565b905062000353828262000420565b919050565b6000604051905090565b600067ffffffffffffffff82111562000380576200037f62000485565b5b6200038b82620004b4565b9050602081019050919050565b600081519050919050565b600082825260208201905092915050565b60005b83811015620003d4578082015181840152602081019050620003b7565b83811115620003e4576000848401525b50505050565b600060028204905060018216806200040357607f821691505b602082108114156200041a576200041962000456565b5b50919050565b6200042b82620004b4565b810181811067ffffffffffffffff821117156200044d576200044c62000485565b5b80604052505050565b7f4e487b7100000000000000000000000000000000000000000000000000000000600052602260045260246000fd5b7f4e487b7100000000000000000000000000000000000000000000000000000000600052604160045260246000fd5b6000601f19601f8301169050919050565b610a7680620004d56000396000f3fe60806040526004361061004a5760003560e01c806312065fe01461004f5780632e1a7d4d1461007a578063a4136862146100a3578063b6b55f25146100cc578063cfae3217146100e8575b600080fd5b34801561005b57600080fd5b50610064610113565b604051610071919061085b565b60405180910390f35b34801561008657600080fd5b506100a1600480360381019061009c919061071c565b61011b565b005b3480156100af57600080fd5b506100ca60048036038101906100c591906106db565b610226565b005b6100e660048036038101906100e1919061071c565b6102ed565b005b3480156100f457600080fd5b506100fd6103b0565b60405161010a91906107b6565b60405180910390f35b600047905090565b4781111561012857600080fd5b3373ffffffffffffffffffffffffffffffffffffffff166108fc829081150290604051600060405180830381858888f1935050505015801561016e573d6000803e3d6000fd5b507f2f23375908fc16f7e00482a87cc91dd819a6eeaf132264c16a70b71a3205de8a3073ffffffffffffffffffffffffffffffffffffffff166312065fe06040518163ffffffff1660e01b815260040160206040518083038186803b1580156101d657600080fd5b505afa1580156101ea573d6000803e3d6000fd5b505050506040513d601f19601f8201168201806040525081019061020e9190610745565b60405161021b919061085b565b60405180910390a150565b6102d3604051806060016040528060238152602001610a1e602391396000805461024f90610934565b80601f016020809104026020016040519081016040528092919081815260200182805461027b90610934565b80156102c85780601f1061029d576101008083540402835291602001916102c8565b820191906000526020600020905b8154815290600101906020018083116102ab57829003601f168201915b5050505050836104de565b80600090805190602001906102e99291906105a6565b5050565b8034146102f957600080fd5b7f2f23375908fc16f7e00482a87cc91dd819a6eeaf132264c16a70b71a3205de8a3073ffffffffffffffffffffffffffffffffffffffff166312065fe06040518163ffffffff1660e01b815260040160206040518083038186803b15801561036057600080fd5b505afa158015610374573d6000803e3d6000fd5b505050506040513d601f19601f820116820180604052508101906103989190610745565b6040516103a5919061085b565b60405180910390a150565b6060600080546103bf90610934565b80601f01602080910402602001604051908101604052809291908181526020018280546103eb90610934565b80156104385780601f1061040d57610100808354040283529160200191610438565b820191906000526020600020905b81548152906001019060200180831161041b57829003601f168201915b5050505050905090565b6104da82826040516024016104589291906107d8565b6040516020818303038152906040527f4b5c4277000000000000000000000000000000000000000000000000000000007bffffffffffffffffffffffffffffffffffffffffffffffffffffffff19166020820180517bffffffffffffffffffffffffffffffffffffffffffffffffffffffff838183161783525050505061057d565b5050565b6105788383836040516024016104f69392919061080f565b6040516020818303038152906040527f2ced7cef000000000000000000000000000000000000000000000000000000007bffffffffffffffffffffffffffffffffffffffffffffffffffffffff19166020820180517bffffffffffffffffffffffffffffffffffffffffffffffffffffffff838183161783525050505061057d565b505050565b60008151905060006a636f6e736f6c652e6c6f679050602083016000808483855afa5050505050565b8280546105b290610934565b90600052602060002090601f0160209004810192826105d4576000855561061b565b82601f106105ed57805160ff191683800117855561061b565b8280016001018555821561061b579182015b8281111561061a5782518255916020019190600101906105ff565b5b509050610628919061062c565b5090565b5b8082111561064557600081600090555060010161062d565b5090565b600061065c6106578461089b565b610876565b90508281526020810184848401111561067457600080fd5b61067f8482856108f2565b509392505050565b600082601f83011261069857600080fd5b81356106a8848260208601610649565b91505092915050565b6000813590506106c081610a06565b92915050565b6000815190506106d581610a06565b92915050565b6000602082840312156106ed57600080fd5b600082013567ffffffffffffffff81111561070757600080fd5b61071384828501610687565b91505092915050565b60006020828403121561072e57600080fd5b600061073c848285016106b1565b91505092915050565b60006020828403121561075757600080fd5b6000610765848285016106c6565b91505092915050565b6000610779826108cc565b61078381856108d7565b9350610793818560208601610901565b61079c816109f5565b840191505092915050565b6107b0816108e8565b82525050565b600060208201905081810360008301526107d0818461076e565b905092915050565b600060408201905081810360008301526107f2818561076e565b90508181036020830152610806818461076e565b90509392505050565b60006060820190508181036000830152610829818661076e565b9050818103602083015261083d818561076e565b90508181036040830152610851818461076e565b9050949350505050565b600060208201905061087060008301846107a7565b92915050565b6000610880610891565b905061088c8282610966565b919050565b6000604051905090565b600067ffffffffffffffff8211156108b6576108b56109c6565b5b6108bf826109f5565b9050602081019050919050565b600081519050919050565b600082825260208201905092915050565b6000819050919050565b82818337600083830152505050565b60005b8381101561091f578082015181840152602081019050610904565b8381111561092e576000848401525b50505050565b6000600282049050600182168061094c57607f821691505b602082108114156109605761095f610997565b5b50919050565b61096f826109f5565b810181811067ffffffffffffffff8211171561098e5761098d6109c6565b5b80604052505050565b7f4e487b7100000000000000000000000000000000000000000000000000000000600052602260045260246000fd5b7f4e487b7100000000000000000000000000000000000000000000000000000000600052604160045260246000fd5b6000601f19601f8301169050919050565b610a0f816108e8565b8114610a1a57600080fd5b5056fe4368616e67696e67206772656574696e672066726f6d202725732720746f2027257327a264697066735822122039ddda127e02dca48a2e81ddf3f65afe517912275828bfa3c6a33ca19c7d187864736f6c634300080400334465706c6f79696e67206120477265657465722077697468206772656574696e673a",
  "linkReferences": {},
  "deployedLinkReferences": {}
}